{
  "transactions": [
    {
      "hash": "0x863c2412dce3bc881b2b372824a7618a5e4d7915f1b980d05c2fffe8d09e0b79",
      "transactionType": "CALL",
      "contractName": null,
      "contractAddress": "0xa1acf2dcfa1671389d15c4585faaac50b7a30d63",
      "function": "claim(string[],address)",
      "arguments": [
        "[test, zk]",
        "0xafBD210c60dD651892a61804A989eEF7bD63CBA0"
      ],
      "transaction": {
        "from": "0xafbd210c60dd651892a61804a989eef7bd63cba0",
        "to": "0xa1acf2dcfa1671389d15c4585faaac50b7a30d63",
        "gas": "0x31012",
        "value": "0x0",
        "input": "0xb72554f20000000000000000000000000000000000000000000000000000000000000040000000000000000000000000afbd210c60dd651892a61804a989eef7bd63cba00000000000000000000000000000000000000000000000000000000000000002000000000000000000000000000000000000000000000000000000000000004000000000000000000000000000000000000000000000000000000000000000800000000000000000000000000000000000000000000000000000000000000004746573740000000000000000000000000000000000000000000000000000000000000000000000000000000000000000000000000000000000000000000000027a6b000000000000000000000000000000000000000000000000000000000000",
        "nonce": "0x134",
        "chainId": "0xaa36a7"
      },
      "additionalContracts": [],
      "isFixedGasLimit": false
    }
  ],
  "receipts": [
    {
      "status": "0x1",
      "cumulativeGasUsed": "0x308272b",
      "logs": [
        {
          "address": "0x00000000000c2e074ec69a0dfb2997ba6c7d2e1e",
          "topics": [
            "0xce0457fe73731f824cc272376169235128c118b49d344817417c6d108d155e82",
            "0x9779bbcebf3daee4340657d5ad76d6cc4289ba3185d61166d7b7099ae8bab0b8",
            "0xdb5e8e4e2ffa1a193cfed3f50192fdb61829c03109dbfd01316a227e9ff40e34"
          ],
          "data": "0x000000000000000000000000a1acf2dcfa1671389d15c4585faaac50b7a30d63",
          "blockHash": "0x1d21ce0d458de2646dffbbf9a5ce1b843070c111e82cbc9612224f7d0fee0077",
          "blockNumber": "0x81e556",
          "blockTimestamp": "0x684729d8",
          "transactionHash": "0x863c2412dce3bc881b2b372824a7618a5e4d7915f1b980d05c2fffe8d09e0b79",
          "transactionIndex": "0x3b",
          "logIndex": "0x2a6",
          "removed": false
        },
        {
          "address": "0x00000000000c2e074ec69a0dfb2997ba6c7d2e1e",
          "topics": [
            "0xce0457fe73731f824cc272376169235128c118b49d344817417c6d108d155e82",
            "0xbf650d2135d01ad8123eb88704d60ad788b53ab8c04ee362872673fc1895d74d",
            "0x9c22ff5f21f0b81b113e63f7db6da94fedef11b2119b4088b89664fb9a3cb658"
          ],
          "data": "0x000000000000000000000000a1acf2dcfa1671389d15c4585faaac50b7a30d63",
          "blockHash": "0x1d21ce0d458de2646dffbbf9a5ce1b843070c111e82cbc9612224f7d0fee0077",
          "blockNumber": "0x81e556",
          "blockTimestamp": "0x684729d8",
          "transactionHash": "0x863c2412dce3bc881b2b372824a7618a5e4d7915f1b980d05c2fffe8d09e0b79",
          "transactionIndex": "0x3b",
          "logIndex": "0x2a7",
          "removed": false
        },
        {
          "address": "0x00000000000c2e074ec69a0dfb2997ba6c7d2e1e",
          "topics": [
            "0xd4735d920b0f87494915f556dd9b54c8f309026070caea5c737245152564d266",
            "0xed725155791d7825f2ec2ed0cfa0387f18b2a82fc6c01b42e1664d166ec4da13"
          ],
          "data": "0x000000000000000000000000a1acf2dcfa1671389d15c4585faaac50b7a30d63",
          "blockHash": "0x1d21ce0d458de2646dffbbf9a5ce1b843070c111e82cbc9612224f7d0fee0077",
          "blockNumber": "0x81e556",
          "blockTimestamp": "0x684729d8",
          "transactionHash": "0x863c2412dce3bc881b2b372824a7618a5e4d7915f1b980d05c2fffe8d09e0b79",
          "transactionIndex": "0x3b",
          "logIndex": "0x2a8",
          "removed": false
        },
        {
          "address": "0x00000000000c2e074ec69a0dfb2997ba6c7d2e1e",
          "topics": [
            "0x335721b01866dc23fbee8b6b2c7b1e14d6f05c28cd35a2c934239f94095602a0",
            "0xed725155791d7825f2ec2ed0cfa0387f18b2a82fc6c01b42e1664d166ec4da13"
          ],
          "data": "0x0000000000000000000000008948458626811dd0c23eb25cc74291247077cc51",
          "blockHash": "0x1d21ce0d458de2646dffbbf9a5ce1b843070c111e82cbc9612224f7d0fee0077",
          "blockNumber": "0x81e556",
          "blockTimestamp": "0x684729d8",
          "transactionHash": "0x863c2412dce3bc881b2b372824a7618a5e4d7915f1b980d05c2fffe8d09e0b79",
          "transactionIndex": "0x3b",
          "logIndex": "0x2a9",
          "removed": false
        },
        {
          "address": "0x8948458626811dd0c23eb25cc74291247077cc51",
          "topics": [
            "0x65412581168e88a1e60c6459d7f44ae83ad0832e670826c05a4e2476b57af752",
            "0xed725155791d7825f2ec2ed0cfa0387f18b2a82fc6c01b42e1664d166ec4da13"
          ],
          "data": "0x000000000000000000000000000000000000000000000000000000000000003c00000000000000000000000000000000000000000000000000000000000000400000000000000000000000000000000000000000000000000000000000000014afbd210c60dd651892a61804a989eef7bd63cba0000000000000000000000000",
          "blockHash": "0x1d21ce0d458de2646dffbbf9a5ce1b843070c111e82cbc9612224f7d0fee0077",
          "blockNumber": "0x81e556",
          "blockTimestamp": "0x684729d8",
          "transactionHash": "0x863c2412dce3bc881b2b372824a7618a5e4d7915f1b980d05c2fffe8d09e0b79",
          "transactionIndex": "0x3b",
          "logIndex": "0x2aa",
          "removed": false
        },
        {
          "address": "0x8948458626811dd0c23eb25cc74291247077cc51",
          "topics": [
            "0x52d7d861f09ab3d26239d492e8968629f95e9e318cf0b73bfddc441522a15fd2",
            "0xed725155791d7825f2ec2ed0cfa0387f18b2a82fc6c01b42e1664d166ec4da13"
          ],
          "data": "0x000000000000000000000000afbd210c60dd651892a61804a989eef7bd63cba0",
          "blockHash": "0x1d21ce0d458de2646dffbbf9a5ce1b843070c111e82cbc9612224f7d0fee0077",
          "blockNumber": "0x81e556",
          "blockTimestamp": "0x684729d8",
          "transactionHash": "0x863c2412dce3bc881b2b372824a7618a5e4d7915f1b980d05c2fffe8d09e0b79",
          "transactionIndex": "0x3b",
          "logIndex": "0x2ab",
          "removed": false
        }
      ],
      "logsBloom": "0x00000000000000000000020000000100000000000100000020000020100002000000000000000004000000000000000000000000000010000000000000020000000000000000000040000000004000000000000004000000000000000000000000000000000000000000000000000000000000000000000000000000000000002000010800000004000100200800000000000000000000000000000000000000000080000003040808000000040200000004000000000000000002040000000000000000000000000000000000004000000000000000000000000000000000000000000000000000000000000180000000000000200000000000000000000000",
      "type": "0x2",
      "transactionHash": "0x863c2412dce3bc881b2b372824a7618a5e4d7915f1b980d05c2fffe8d09e0b79",
      "transactionIndex": "0x3b",
      "blockHash": "0x1d21ce0d458de2646dffbbf9a5ce1b843070c111e82cbc9612224f7d0fee0077",
      "blockNumber": "0x81e556",
      "gasUsed": "0x237a8",
      "effectiveGasPrice": "0x989f44",
      "from": "0xafbd210c60dd651892a61804a989eef7bd63cba0",
      "to": "0xa1acf2dcfa1671389d15c4585faaac50b7a30d63",
      "contractAddress": null
    }
  ],
  "libraries": [],
  "pending": [],
  "returns": {},
  "timestamp": 1749494233,
  "chain": 11155111,
  "commit": "0fd6cdb"
}