{
  "transactions": [
    {
      "hash": "0xdd3819c04105b07e33bf571c5cb1bd460f3df62539ad4aceb0155460d91cfcb0",
      "transactionType": "CALL",
      "contractName": null,
      "contractAddress": "0xe902bc5bcc1dc15dbdf27ffe346c31c4f8fd37df",
      "function": "entrypoint(bytes)",
      "arguments": [
        "0x0000000000000000000000000000000000000000000000000000000000000020000000000000000000000000000000000000000000000000000000000000006000000000000000000000000000000000000000000000000000000000000000a000000000000000000000000000000000000000000000000000000000000000e000000000000000000000000000000000000000000000000000000000000000127468657a6465763140676d61696c2e636f6d0000000000000000000000000000000000000000000000000000000000000000000000000000000000000000000e7a6b667269656e646c792e6574680000000000000000000000000000000000000000000000000000000000000000000000000000000000000000000000000040000000000000000000000000000000000000000000000000000000000000046000000000000000000000000000000000000000000000000000000000000001200ea9c777dc7110e5a9e89b13f0cfc540e3845ba120b2b6dc24024d61488d47880cef36d2e53a61d038b0f46466f7c1e4e5d62636fc3acab471c8ac6a0558f7050000000000000000000000000000000000000000000000000000000000000000000000000000000000000000000000000000000000000000000000000000016011dd2e9ede9b5ba105a03650ff6b74f3d4f19e75dd64c53c8dc8f7ab82403912000000000000000000000000000000000000000000000000000000000000000000000000000000000000000000000000000000000000000000000000000001a000000000000000000000000000000000000000000000000000000000000003e00000000000000000000000000000000000000000000000000000000000000009676d61696c2e636f6d0000000000000000000000000000000000000000000000000000000000000000000000000000000000000000000000000000000000001f4c696e6b206d7920656d61696c20746f207a6b667269656e646c792e657468000000000000000000000000000000000000000000000000000000000000000220000000000000000000000000000000000195d4c106145000c13aeeedd678b05f0000000000000000000000000000000001ed8b83fdb773d1730ddda2066cd5b3000000000000000000000000000000000167d6a9a16d4a3d07bc6eb492951b2200000000000000000000000000000000019fe05891ab1a0a71b2d56a0c416515000000000000000000000000000000000043c08e0917cd795cc9d2563660614500000000000000000000000000000000007f0e932deb0d915b589a2a7b70939e0000000000000000000000000000000000fe907aa3ad716e2baec1f6e0bed784000000000000000000000000000000000031d03ea0bc27c0ecb7b1ec6cda168800000000000000000000000000000000007c32a76308aae634320642d63fe2e0000000000000000000000000000000000021af28eda0ad14a0008d7706a6da3b0000000000000000000000000000000000cdd527713c044381c33b02c444087c0000000000000000000000000000000001684d2c2d1a38fd978fc63ad37e7f9800000000000000000000000000000000000198ab996377df7a009eee7764b238000000000000000000000000000000000116a054e98ea9aed0ecabe226f1c4c90000000000000000000000000000000001b280bf4a87667e656cd83d4a007de6000000000000000000000000000000000063f20dd1707613702fb797e979b4780000000000000000000000000000000000009edbd2293d6192a84a7b4c5c699d00000000000000000000000000000000000000000000000000000000000000127468657a6465763140676d61696c2e636f6d000000000000000000000000000000000000000000000000000000000000000000000000000000000000000001002243bc2622b8d521ddb70d17bf788b4fd7111f1962e6bf86263bc4727f09d0f701b25c9e16b80fe249cbfaae7fb946241a40b0b5181efff1863328e98846e1121fb37904650f5a9d711d3b3724b15f2e547e732ae31eb8938c4c3e6edbde22fb2c031726a9bdfdae095f265b0c18c38ae5ca8fc0e853fc0978849489ce0dab2b01287c6a000e8ae9d1774c83d1717a3ffcc2e6e662986cf84729b93d3d95adbb0b0c8f99e464cfb59029294bd987f1c71223a9a4ef582833b721b20c201b6488220421abd6d91aced237a4b9565dcb9f818019e1500a00f250b77887d89666e318431117b1a3aceebb89a1ded6f588d49c44672878dac9d1371968d0f7a18bd2"
      ],
      "transaction": {
        "from": "0xafbd210c60dd651892a61804a989eef7bd63cba0",
        "to": "0xe902bc5bcc1dc15dbdf27ffe346c31c4f8fd37df",
        "gas": "0x1c73d9",
        "value": "0x0",
        "input": "0xe0a3a648000000000000000000000000000000000000000000000000000000000000002000000000000000000000000000000000000000000000000000000000000006800000000000000000000000000000000000000000000000000000000000000020000000000000000000000000000000000000000000000000000000000000006000000000000000000000000000000000000000000000000000000000000000a000000000000000000000000000000000000000000000000000000000000000e000000000000000000000000000000000000000000000000000000000000000127468657a6465763140676d61696c2e636f6d0000000000000000000000000000000000000000000000000000000000000000000000000000000000000000000e7a6b667269656e646c792e6574680000000000000000000000000000000000000000000000000000000000000000000000000000000000000000000000000040000000000000000000000000000000000000000000000000000000000000046000000000000000000000000000000000000000000000000000000000000001200ea9c777dc7110e5a9e89b13f0cfc540e3845ba120b2b6dc24024d61488d47880cef36d2e53a61d038b0f46466f7c1e4e5d62636fc3acab471c8ac6a0558f7050000000000000000000000000000000000000000000000000000000000000000000000000000000000000000000000000000000000000000000000000000016011dd2e9ede9b5ba105a03650ff6b74f3d4f19e75dd64c53c8dc8f7ab82403912000000000000000000000000000000000000000000000000000000000000000000000000000000000000000000000000000000000000000000000000000001a000000000000000000000000000000000000000000000000000000000000003e00000000000000000000000000000000000000000000000000000000000000009676d61696c2e636f6d0000000000000000000000000000000000000000000000000000000000000000000000000000000000000000000000000000000000001f4c696e6b206d7920656d61696c20746f207a6b667269656e646c792e657468000000000000000000000000000000000000000000000000000000000000000220000000000000000000000000000000000195d4c106145000c13aeeedd678b05f0000000000000000000000000000000001ed8b83fdb773d1730ddda2066cd5b3000000000000000000000000000000000167d6a9a16d4a3d07bc6eb492951b2200000000000000000000000000000000019fe05891ab1a0a71b2d56a0c416515000000000000000000000000000000000043c08e0917cd795cc9d2563660614500000000000000000000000000000000007f0e932deb0d915b589a2a7b70939e0000000000000000000000000000000000fe907aa3ad716e2baec1f6e0bed784000000000000000000000000000000000031d03ea0bc27c0ecb7b1ec6cda168800000000000000000000000000000000007c32a76308aae634320642d63fe2e0000000000000000000000000000000000021af28eda0ad14a0008d7706a6da3b0000000000000000000000000000000000cdd527713c044381c33b02c444087c0000000000000000000000000000000001684d2c2d1a38fd978fc63ad37e7f9800000000000000000000000000000000000198ab996377df7a009eee7764b238000000000000000000000000000000000116a054e98ea9aed0ecabe226f1c4c90000000000000000000000000000000001b280bf4a87667e656cd83d4a007de6000000000000000000000000000000000063f20dd1707613702fb797e979b4780000000000000000000000000000000000009edbd2293d6192a84a7b4c5c699d00000000000000000000000000000000000000000000000000000000000000127468657a6465763140676d61696c2e636f6d000000000000000000000000000000000000000000000000000000000000000000000000000000000000000001002243bc2622b8d521ddb70d17bf788b4fd7111f1962e6bf86263bc4727f09d0f701b25c9e16b80fe249cbfaae7fb946241a40b0b5181efff1863328e98846e1121fb37904650f5a9d711d3b3724b15f2e547e732ae31eb8938c4c3e6edbde22fb2c031726a9bdfdae095f265b0c18c38ae5ca8fc0e853fc0978849489ce0dab2b01287c6a000e8ae9d1774c83d1717a3ffcc2e6e662986cf84729b93d3d95adbb0b0c8f99e464cfb59029294bd987f1c71223a9a4ef582833b721b20c201b6488220421abd6d91aced237a4b9565dcb9f818019e1500a00f250b77887d89666e318431117b1a3aceebb89a1ded6f588d49c44672878dac9d1371968d0f7a18bd2",
        "nonce": "0x1bc",
        "chainId": "0xaa36a7"
      },
      "additionalContracts": [],
      "isFixedGasLimit": false
    }
  ],
  "receipts": [
    {
      "status": "0x1",
      "cumulativeGasUsed": "0xd737fe",
      "logs": [
        {
          "address": "0xe902bc5bcc1dc15dbdf27ffe346c31c4f8fd37df",
          "topics": [
            "0x200ace9534d786dd56c402c1c63a5024f16f183629e2b5b52f4b76ab654f0e98",
            "0x02886fb68606e9100de4677dcb0f33dd31cd2a5712ff2c24a185a47992b833db"
          ],
          "data": "0x000000000000000000000000000000000000000000000000000000000000002000000000000000000000000000000000000000000000000000000000000000127468657a6465763140676d61696c2e636f6d0000000000000000000000000000",
          "blockHash": "0x298ee7005485839ce9115c6a3ae628183cf59ccef693d7b157a5b7223191b5cb",
          "blockNumber": "0x87f857",
          "blockTimestamp": "0x6890a864",
          "transactionHash": "0xdd3819c04105b07e33bf571c5cb1bd460f3df62539ad4aceb0155460d91cfcb0",
          "transactionIndex": "0x62",
          "logIndex": "0x8e",
          "removed": false
        }
      ],
      "logsBloom": "0x00000000000000000000000000000000000000000000000000000000000000000000000000000000000000000000000000000000000000000000000000000000000000000000000000000000000000000000000000000000000000400000000000000000000000000000000000000000000000000000000000000000000000000000000020000000000000000000000000000000000200000000000000000000000000000000000000040000000000000000000000000000004000000000000000000004000000000000000000000000000000000000000000000000000000000080000000002000000000000000004000000000000000000000000000000000",
      "type": "0x2",
      "transactionHash": "0xdd3819c04105b07e33bf571c5cb1bd460f3df62539ad4aceb0155460d91cfcb0",
      "transactionIndex": "0x62",
      "blockHash": "0x298ee7005485839ce9115c6a3ae628183cf59ccef693d7b157a5b7223191b5cb",
      "blockNumber": "0x87f857",
      "gasUsed": "0x149960",
      "effectiveGasPrice": "0x387272",
      "from": "0xafbd210c60dd651892a61804a989eef7bd63cba0",
      "to": "0xe902bc5bcc1dc15dbdf27ffe346c31c4f8fd37df",
      "contractAddress": null
    }
  ],
  "libraries": [],
  "pending": [],
  "returns": {},
  "timestamp": 1754310758,
  "chain": 11155111,
  "commit": "2f94985"
}