{
  "transactions": [
    {
      "hash": "0x3d43803a337861626d0d63f7b9d35a72be3b7aa66eb1eb6729d5a8a56b80b064",
      "transactionType": "CREATE",
      "contractName": "MockRegistrar",
      "contractAddress": "0xa1acf2dcfa1671389d15c4585faaac50b7a30d63",
      "function": null,
      "arguments": [
        "0x9779bbcebf3daee4340657d5ad76d6cc4289ba3185d61166d7b7099ae8bab0b8",
        "0x00000000000C2E074eC69A0dFb2997BA6C7d2e1e",
        "0x8948458626811dd0c23EB25Cc74291247077cC51"
      ],
      "transaction": {
        "from": "0xafbd210c60dd651892a61804a989eef7bd63cba0",
        "gas": "0x8a341",
        "value": "0x0",
        "input": "0x60e060405234801561000f575f5ffd5b506040516107d13803806107d183398101604081905261002e91610066565b6080929092526001600160a01b0390811660a0521660c05261009f565b80516001600160a01b0381168114610061575f5ffd5b919050565b5f5f5f60608486031215610078575f5ffd5b835192506100886020850161004b565b91506100966040850161004b565b90509250925092565b60805160a05160c0516106e86100e95f395f818160d901528181610164015261023801525f8181605301528181610195015261034501525f818160a4015261029c01526106e85ff3fe608060405234801561000f575f5ffd5b506004361061004a575f3560e01c806306433b1b1461004e5780634a9fe1c71461009f5780634d77532d146100d4578063b72554f2146100fb575b5f5ffd5b6100757f000000000000000000000000000000000000000000000000000000000000000081565b60405173ffffffffffffffffffffffffffffffffffffffff90911681526020015b60405180910390f35b6100c67f000000000000000000000000000000000000000000000000000000000000000081565b604051908152602001610096565b6100757f000000000000000000000000000000000000000000000000000000000000000081565b61010e61010936600461049b565b610110565b005b5f61011a83610296565b6040517fcf4088230000000000000000000000000000000000000000000000000000000081526004810182905230602482015273ffffffffffffffffffffffffffffffffffffffff7f0000000000000000000000000000000000000000000000000000000000000000811660448301525f60648301529192507f00000000000000000000000000000000000000000000000000000000000000009091169063cf408823906084015f604051808303815f87803b1580156101d8575f5ffd5b505af11580156101ea573d5f5f3e3d5ffd5b50506040517fd5fa2b000000000000000000000000000000000000000000000000000000000081526004810184905273ffffffffffffffffffffffffffffffffffffffff85811660248301527f000000000000000000000000000000000000000000000000000000000000000016925063d5fa2b0091506044015f604051808303815f87803b15801561027b575f5ffd5b505af115801561028d573d5f5f3e3d5ffd5b50505050505050565b80515f907f0000000000000000000000000000000000000000000000000000000000000000905b80156103f0575f846102d0600184610621565b815181106102e0576102e061063a565b60209081029190910181015180519101206040517f06ab5923000000000000000000000000000000000000000000000000000000008152600481018590526024810182905230604482015290915073ffffffffffffffffffffffffffffffffffffffff7f000000000000000000000000000000000000000000000000000000000000000016906306ab5923906064016020604051808303815f875af115801561038b573d5f5f3e3d5ffd5b505050506040513d601f19601f820116820180604052508101906103af9190610667565b5060408051602081018590529081018290526060016040516020818303038152906040528051906020012092505080806103e89061067e565b9150506102bd565b5092915050565b7f4e487b71000000000000000000000000000000000000000000000000000000005f52604160045260245ffd5b604051601f82017fffffffffffffffffffffffffffffffffffffffffffffffffffffffffffffffe016810167ffffffffffffffff8111828210171561046b5761046b6103f7565b604052919050565b803573ffffffffffffffffffffffffffffffffffffffff81168114610496575f5ffd5b919050565b5f5f604083850312156104ac575f5ffd5b823567ffffffffffffffff8111156104c2575f5ffd5b8301601f810185136104d2575f5ffd5b803567ffffffffffffffff8111156104ec576104ec6103f7565b8060051b6104fc60208201610424565b91825260208184018101929081019088841115610517575f5ffd5b6020850192505b838310156105d757823567ffffffffffffffff81111561053c575f5ffd5b8501603f81018a1361054c575f5ffd5b602081013567ffffffffffffffff811115610569576105696103f7565b61059a60207fffffffffffffffffffffffffffffffffffffffffffffffffffffffffffffffe0601f84011601610424565b8181526040838301018c10156105ae575f5ffd5b816040840160208301375f6020838301015280855250505060208201915060208301925061051e565b80965050505050506105eb60208401610473565b90509250929050565b7f4e487b71000000000000000000000000000000000000000000000000000000005f52601160045260245ffd5b81810381811115610634576106346105f4565b92915050565b7f4e487b71000000000000000000000000000000000000000000000000000000005f52603260045260245ffd5b5f60208284031215610677575f5ffd5b5051919050565b5f8161068c5761068c6105f4565b507fffffffffffffffffffffffffffffffffffffffffffffffffffffffffffffffff019056fea26469706673582212201db9fa95a1f1b647fe498d3e3ade518c2a9d8ea2bd0345c01c7fdc278fee523a64736f6c634300081e00339779bbcebf3daee4340657d5ad76d6cc4289ba3185d61166d7b7099ae8bab0b800000000000000000000000000000000000c2e074ec69a0dfb2997ba6c7d2e1e0000000000000000000000008948458626811dd0c23eb25cc74291247077cc51",
        "nonce": "0x132",
        "chainId": "0xaa36a7"
      },
      "additionalContracts": [],
      "isFixedGasLimit": false
    },
    {
      "hash": "0xdaf40aad052e7337bfc71a8e49fe32b3072175047814017f77816301a8d1220e",
      "transactionType": "CALL",
      "contractName": null,
      "contractAddress": "0x00000000000c2e074ec69a0dfb2997ba6c7d2e1e",
      "function": "setApprovalForAll(address,bool)",
      "arguments": [
        "0xA1ACF2Dcfa1671389d15C4585fAAaC50B7A30D63",
        "true"
      ],
      "transaction": {
        "from": "0xafbd210c60dd651892a61804a989eef7bd63cba0",
        "to": "0x00000000000c2e074ec69a0dfb2997ba6c7d2e1e",
        "gas": "0xf8d4",
        "value": "0x0",
        "input": "0xa22cb465000000000000000000000000a1acf2dcfa1671389d15c4585faaac50b7a30d630000000000000000000000000000000000000000000000000000000000000001",
        "nonce": "0x133",
        "chainId": "0xaa36a7"
      },
      "additionalContracts": [],
      "isFixedGasLimit": false
    }
  ],
  "receipts": [
    {
      "status": "0x1",
      "cumulativeGasUsed": "0x425971",
      "logs": [],
      "logsBloom": "0x00000000000000000000000000000000000000000000000000000000000000000000000000000000000000000000000000000000000000000000000000000000000000000000000000000000000000000000000000000000000000000000000000000000000000000000000000000000000000000000000000000000000000000000000000000000000000000000000000000000000000000000000000000000000000000000000000000000000000000000000000000000000000000000000000000000000000000000000000000000000000000000000000000000000000000000000000000000000000000000000000000000000000000000000000000000",
      "type": "0x2",
      "transactionHash": "0x3d43803a337861626d0d63f7b9d35a72be3b7aa66eb1eb6729d5a8a56b80b064",
      "transactionIndex": "0x2c",
      "blockHash": "0x7d702e2c472376c9133a5d7c49ab9ca5cf539ea44b72d98f6d0c2c710a8fb549",
      "blockNumber": "0x81e540",
      "gasUsed": "0x6a4f7",
      "effectiveGasPrice": "0x53eea7",
      "from": "0xafbd210c60dd651892a61804a989eef7bd63cba0",
      "to": null,
      "contractAddress": "0xa1acf2dcfa1671389d15c4585faaac50b7a30d63"
    },
    {
      "status": "0x1",
      "cumulativeGasUsed": "0x430d97",
      "logs": [
        {
          "address": "0x00000000000c2e074ec69a0dfb2997ba6c7d2e1e",
          "topics": [
            "0x17307eab39ab6107e8899845ad3d59bd9653f200f220920489ca2b5937696c31",
            "0x000000000000000000000000afbd210c60dd651892a61804a989eef7bd63cba0",
            "0x000000000000000000000000a1acf2dcfa1671389d15c4585faaac50b7a30d63"
          ],
          "data": "0x0000000000000000000000000000000000000000000000000000000000000001",
          "blockHash": "0x7d702e2c472376c9133a5d7c49ab9ca5cf539ea44b72d98f6d0c2c710a8fb549",
          "blockNumber": "0x81e540",
          "blockTimestamp": "0x684728d0",
          "transactionHash": "0xdaf40aad052e7337bfc71a8e49fe32b3072175047814017f77816301a8d1220e",
          "transactionIndex": "0x2d",
          "logIndex": "0x3d",
          "removed": false
        }
      ],
      "logsBloom": "0x00000000000000000000000000000000000000000000000000000000000000000000000000000001000000000000000000000000000000000000000000000000000000000000004000000000000000000000000000000000000000000000000002000000000000000000000000000000000000000000000000004000000000000000010000002000000000000000000000000000000000000000000000000000000000000000040000000000000000000000000000000000000001000000800000000000000000000000000000000000000000000000000000000000000000000000200800000000000000000100000000000000000000000000000000000000",
      "type": "0x2",
      "transactionHash": "0xdaf40aad052e7337bfc71a8e49fe32b3072175047814017f77816301a8d1220e",
      "transactionIndex": "0x2d",
      "blockHash": "0x7d702e2c472376c9133a5d7c49ab9ca5cf539ea44b72d98f6d0c2c710a8fb549",
      "blockNumber": "0x81e540",
      "gasUsed": "0xb426",
      "effectiveGasPrice": "0x53eea7",
      "from": "0xafbd210c60dd651892a61804a989eef7bd63cba0",
      "to": "0x00000000000c2e074ec69a0dfb2997ba6c7d2e1e",
      "contractAddress": null
    }
  ],
  "libraries": [],
  "pending": [],
  "returns": {},
  "timestamp": 1749493991,
  "chain": 11155111,
  "commit": "0fd6cdb"
}